{
  "_format": "hh-sol-artifact-1",
  "contractName": "PharmaSupplyChain",
  "sourceName": "contracts/PharmaSupplyChain.sol",
  "abi": [
    {
      "anonymous": false,
      "inputs": [
        {
          "indexed": false,
          "internalType": "string",
          "name": "batchNumber",
          "type": "string"
        },
        {
          "indexed": false,
          "internalType": "string",
          "name": "name",
          "type": "string"
        },
        {
          "indexed": true,
          "internalType": "address",
          "name": "manufacturer",
          "type": "address"
        }
      ],
      "name": "DrugAdded",
      "type": "event"
    },
    {
      "anonymous": false,
      "inputs": [
        {
          "indexed": false,
          "internalType": "string",
          "name": "batchNumber",
          "type": "string"
        },
        {
          "indexed": false,
          "internalType": "string",
          "name": "reason",
          "type": "string"
        }
      ],
      "name": "DrugRecalled",
      "type": "event"
    },
    {
      "anonymous": false,
      "inputs": [
        {
          "indexed": false,
          "internalType": "string",
          "name": "batchNumber",
          "type": "string"
        },
        {
          "indexed": false,
          "internalType": "enum PharmaSupplyChain.Status",
          "name": "newStatus",
          "type": "uint8"
        }
      ],
      "name": "DrugStatusChanged",
      "type": "event"
    },
    {
      "anonymous": false,
      "inputs": [
        {
          "indexed": false,
          "internalType": "string",
          "name": "batchNumber",
          "type": "string"
        },
        {
          "indexed": true,
          "internalType": "address",
          "name": "verifier",
          "type": "address"
        }
      ],
      "name": "DrugVerified",
      "type": "event"
    },
    {
      "anonymous": false,
      "inputs": [
        {
          "indexed": false,
          "internalType": "string",
          "name": "batchNumber",
          "type": "string"
        },
        {
          "indexed": false,
          "internalType": "uint256",
          "name": "temperature",
          "type": "uint256"
        },
        {
          "indexed": false,
          "internalType": "uint256",
          "name": "humidity",
          "type": "uint256"
        },
        {
          "indexed": false,
          "internalType": "bool",
          "name": "breached",
          "type": "bool"
        }
      ],
      "name": "EnvironmentalUpdate",
      "type": "event"
    },
    {
      "anonymous": false,
      "inputs": [
        {
          "indexed": false,
          "internalType": "string",
          "name": "batchNumber",
          "type": "string"
        },
        {
          "indexed": true,
          "internalType": "address",
          "name": "previousOwner",
          "type": "address"
        },
        {
          "indexed": true,
          "internalType": "address",
          "name": "newOwner",
          "type": "address"
        }
      ],
      "name": "OwnershipTransferred",
      "type": "event"
    },
    {
      "anonymous": false,
      "inputs": [
        {
          "indexed": false,
          "internalType": "string",
          "name": "batchNumber",
          "type": "string"
        },
        {
          "indexed": false,
          "internalType": "uint256",
          "name": "newPrice",
          "type": "uint256"
        }
      ],
      "name": "PriceUpdated",
      "type": "event"
    },
    {
      "inputs": [
        {
          "internalType": "string",
          "name": "batchNumber",
          "type": "string"
        },
        {
          "internalType": "string",
          "name": "name",
          "type": "string"
        },
        {
          "internalType": "string",
          "name": "manufacturer",
          "type": "string"
        },
        {
          "internalType": "uint256",
          "name": "manufacturingDate",
          "type": "uint256"
        },
        {
          "internalType": "uint256",
          "name": "expiryDate",
          "type": "uint256"
        }
      ],
      "name": "addDrugBase",
      "outputs": [],
      "stateMutability": "nonpayable",
      "type": "function"
    },
    {
      "inputs": [
        {
          "internalType": "string",
          "name": "batchNumber",
          "type": "string"
        },
        {
          "internalType": "string",
          "name": "dosageForm",
          "type": "string"
        },
        {
          "internalType": "uint256",
          "name": "strength",
          "type": "uint256"
        },
        {
          "internalType": "string",
          "name": "storageConditions",
          "type": "string"
        },
        {
          "internalType": "string",
          "name": "serialNumber",
          "type": "string"
        },
        {
          "internalType": "uint256",
          "name": "price",
          "type": "uint256"
        }
      ],
      "name": "addDrugDetails",
      "outputs": [],
      "stateMutability": "nonpayable",
      "type": "function"
    },
    {
      "inputs": [
        {
          "internalType": "string",
          "name": "batchNumber",
          "type": "string"
        }
      ],
      "name": "getDrugBase",
      "outputs": [
        {
          "internalType": "string",
          "name": "name",
          "type": "string"
        },
        {
          "internalType": "string",
          "name": "manufacturer",
          "type": "string"
        },
        {
          "internalType": "uint256",
          "name": "manufacturingDate",
          "type": "uint256"
        },
        {
          "internalType": "uint256",
          "name": "expiryDate",
          "type": "uint256"
        },
        {
          "internalType": "address",
          "name": "currentOwner",
          "type": "address"
        },
        {
          "internalType": "bool",
          "name": "isVerified",
          "type": "bool"
        }
      ],
      "stateMutability": "view",
      "type": "function"
    },
    {
      "inputs": [
        {
          "internalType": "string",
          "name": "batchNumber",
          "type": "string"
        }
      ],
      "name": "getDrugEnvironmental",
      "outputs": [
        {
          "internalType": "uint256",
          "name": "currentTemp",
          "type": "uint256"
        },
        {
          "internalType": "uint256",
          "name": "currentHumid",
          "type": "uint256"
        },
        {
          "internalType": "uint256",
          "name": "maxTemp",
          "type": "uint256"
        },
        {
          "internalType": "uint256",
          "name": "minTemp",
          "type": "uint256"
        },
        {
          "internalType": "uint256",
          "name": "maxHumid",
          "type": "uint256"
        },
        {
          "internalType": "bool",
          "name": "tempBreached",
          "type": "bool"
        }
      ],
      "stateMutability": "view",
      "type": "function"
    },
    {
      "inputs": [
        {
          "internalType": "string",
          "name": "batchNumber",
          "type": "string"
        }
      ],
      "name": "getDrugStatus",
      "outputs": [
        {
          "internalType": "enum PharmaSupplyChain.Status",
          "name": "status",
          "type": "uint8"
        },
        {
          "internalType": "address[]",
          "name": "ownershipHistory",
          "type": "address[]"
        }
      ],
      "stateMutability": "view",
      "type": "function"
    },
    {
      "inputs": [
        {
          "internalType": "string",
          "name": "batchNumber",
          "type": "string"
        },
        {
          "internalType": "uint256",
          "name": "timestamp",
          "type": "uint256"
        }
      ],
      "name": "getEnvironmentalLog",
      "outputs": [
        {
          "internalType": "uint256",
          "name": "temperature",
          "type": "uint256"
        },
        {
          "internalType": "uint256",
          "name": "humidity",
          "type": "uint256"
        },
        {
          "internalType": "address",
          "name": "reporter",
          "type": "address"
        }
      ],
      "stateMutability": "view",
      "type": "function"
    },
    {
      "inputs": [
        {
          "internalType": "string",
          "name": "batchNumber",
          "type": "string"
        }
      ],
      "name": "getLogTimestamps",
      "outputs": [
        {
          "internalType": "uint256[]",
          "name": "",
          "type": "uint256[]"
        }
      ],
      "stateMutability": "view",
      "type": "function"
    },
    {
      "inputs": [
        {
          "internalType": "string",
          "name": "batchNumber",
          "type": "string"
        }
      ],
      "name": "getMedicineDetails",
      "outputs": [
        {
          "internalType": "string",
          "name": "dosageForm",
          "type": "string"
        },
        {
          "internalType": "uint256",
          "name": "strength",
          "type": "uint256"
        },
        {
          "internalType": "string",
          "name": "storageConditions",
          "type": "string"
        },
        {
          "internalType": "string",
          "name": "serialNumber",
          "type": "string"
        },
        {
          "internalType": "uint256",
          "name": "price",
          "type": "uint256"
        }
      ],
      "stateMutability": "view",
      "type": "function"
    },
    {
      "inputs": [
        {
          "internalType": "string",
          "name": "batchNumber",
          "type": "string"
        },
        {
          "internalType": "string",
          "name": "reason",
          "type": "string"
        }
      ],
      "name": "recallDrug",
      "outputs": [],
      "stateMutability": "nonpayable",
      "type": "function"
    },
    {
      "inputs": [
        {
          "internalType": "string",
          "name": "batchNumber",
          "type": "string"
        },
        {
          "internalType": "uint256",
          "name": "maxTemp",
          "type": "uint256"
        },
        {
          "internalType": "uint256",
          "name": "minTemp",
          "type": "uint256"
        },
        {
          "internalType": "uint256",
          "name": "maxHumid",
          "type": "uint256"
        }
      ],
      "name": "setEnvironmentalLimits",
      "outputs": [],
      "stateMutability": "nonpayable",
      "type": "function"
    },
    {
      "inputs": [
        {
          "internalType": "string",
          "name": "batchNumber",
          "type": "string"
        },
        {
          "internalType": "address",
          "name": "newOwner",
          "type": "address"
        }
      ],
      "name": "transferOwnership",
      "outputs": [],
      "stateMutability": "nonpayable",
      "type": "function"
    },
    {
      "inputs": [
        {
          "internalType": "string",
          "name": "batchNumber",
          "type": "string"
        },
        {
          "internalType": "uint256",
          "name": "temperature",
          "type": "uint256"
        },
        {
          "internalType": "uint256",
          "name": "humidity",
          "type": "uint256"
        }
      ],
      "name": "updateEnvironmentalData",
      "outputs": [],
      "stateMutability": "nonpayable",
      "type": "function"
    },
    {
      "inputs": [
        {
          "internalType": "string",
          "name": "batchNumber",
          "type": "string"
        },
        {
          "internalType": "uint256",
          "name": "newPrice",
          "type": "uint256"
        }
      ],
      "name": "updatePrice",
      "outputs": [],
      "stateMutability": "nonpayable",
      "type": "function"
    },
    {
      "inputs": [
        {
          "internalType": "string",
          "name": "batchNumber",
          "type": "string"
        },
        {
          "internalType": "enum PharmaSupplyChain.Status",
          "name": "newStatus",
          "type": "uint8"
        }
      ],
      "name": "updateStatus",
      "outputs": [],
      "stateMutability": "nonpayable",
      "type": "function"
    },
    {
      "inputs": [
        {
          "internalType": "string",
          "name": "batchNumber",
          "type": "string"
        }
      ],
      "name": "verifyDrug",
      "outputs": [],
      "stateMutability": "nonpayable",
      "type": "function"
    }
  ],
  "bytecode": "0x6080604052348015600f57600080fd5b5061289b8061001f6000396000f3fe608060405234801561001057600080fd5b50600436106100f55760003560e01c806386db646b11610097578063ba3fb11311610066578063ba3fb1131461028a578063c0e793c2146102bf578063dae01dec146102db578063f39513a8146102f7576100f5565b806386db646b146101d35780638b47f2c8146101ef57806391f0d78314610221578063adcd1dcd14610256576100f5565b806343f0128d116100d357806343f0128d146101635780634a432a461461017f578063536169821461019b5780637b79746a146101b7576100f5565b80630f36e887146100fa5780631010f849146101165780633b7b0a7414610147575b600080fd5b610114600480360381019061010f919061193a565b610327565b005b610130600480360381019061012b91906119bd565b61041c565b60405161013e929190611b6d565b60405180910390f35b610161600480360381019061015c91906119bd565b6104ea565b005b61017d60048036038101906101789190611b9d565b6105e5565b005b61019960048036038101906101949190611c9a565b610709565b005b6101b560048036038101906101b09190611d1b565b61081d565b005b6101d160048036038101906101cc9190611d77565b610954565b005b6101ed60048036038101906101e89190611def565b610a78565b005b61020960048036038101906102049190611c9a565b610d12565b60405161021893929190611e7c565b60405180910390f35b61023b600480360381019061023691906119bd565b610de5565b60405161024d96959493929190611f4d565b60405180910390f35b610270600480360381019061026b91906119bd565b610f86565b604051610281959493929190611fbc565b60405180910390f35b6102a4600480360381019061029f91906119bd565b61117e565b6040516102b696959493929190612024565b60405180910390f35b6102d960048036038101906102d491906120b1565b6111ea565b005b6102f560048036038101906102f0919061210d565b61142c565b005b610311600480360381019061030c91906119bd565b61168a565b60405161031e919061229a565b60405180910390f35b833373ffffffffffffffffffffffffffffffffffffffff1660008260405161034f91906122f8565b908152602001604051809103902060050160009054906101000a900473ffffffffffffffffffffffffffffffffffffffff1673ffffffffffffffffffffffffffffffffffffffff16146103d7576040517f08c379a00000000000000000000000000000000000000000000000000000000081526004016103ce9061235b565b60405180910390fd5b60006002866040516103e991906122f8565b90815260200160405180910390209050848160020181905550838160030181905550828160040181905550505050505050565b60006060600060038460405161043291906122f8565b908152602001604051809103902090508060000160009054906101000a900460ff1681600101808054806020026020016040519081016040528092919081815260200182805480156104d957602002820191906000526020600020905b8160009054906101000a900473ffffffffffffffffffffffffffffffffffffffff1673ffffffffffffffffffffffffffffffffffffffff168152602001906001019080831161048f575b505050505090509250925050915091565b80600080826040516104fc91906122f8565b90815260200160405180910390206000018054610518906123aa565b90501161055a576040517f08c379a000000000000000000000000000000000000000000000000000000000815260040161055190612427565b60405180910390fd5b600160008360405161056c91906122f8565b908152602001604051809103902060050160146101000a81548160ff0219169083151502179055503373ffffffffffffffffffffffffffffffffffffffff167e78b2dd844d37329fb26fa00a3c7ccfb05a91b5575b39fed2381cb1f4ba1954836040516105d99190612447565b60405180910390a25050565b853373ffffffffffffffffffffffffffffffffffffffff1660008260405161060d91906122f8565b908152602001604051809103902060050160009054906101000a900473ffffffffffffffffffffffffffffffffffffffff1673ffffffffffffffffffffffffffffffffffffffff1614610695576040517f08c379a000000000000000000000000000000000000000000000000000000000815260040161068c9061235b565b60405180910390fd5b60006001886040516106a791906122f8565b90815260200160405180910390209050868160000190816106c89190612615565b50858160010181905550848160020190816106e39190612615565b50838160030190816106f59190612615565b508281600401819055505050505050505050565b813373ffffffffffffffffffffffffffffffffffffffff1660008260405161073191906122f8565b908152602001604051809103902060050160009054906101000a900473ffffffffffffffffffffffffffffffffffffffff1673ffffffffffffffffffffffffffffffffffffffff16146107b9576040517f08c379a00000000000000000000000000000000000000000000000000000000081526004016107b09061235b565b60405180910390fd5b816001846040516107ca91906122f8565b9081526020016040518091039020600401819055507f159e83f4712ba2552e68be9d848e49bf6dd35c24f19564ffd523b6549450a2f483836040516108109291906126e7565b60405180910390a1505050565b813373ffffffffffffffffffffffffffffffffffffffff1660008260405161084591906122f8565b908152602001604051809103902060050160009054906101000a900473ffffffffffffffffffffffffffffffffffffffff1673ffffffffffffffffffffffffffffffffffffffff16146108cd576040517f08c379a00000000000000000000000000000000000000000000000000000000081526004016108c49061235b565b60405180910390fd5b816003846040516108de91906122f8565b908152602001604051809103902060000160006101000a81548160ff0219169083600581111561091157610910611a06565b5b02179055507faf55bfe5471c49cd1cbfd66f3aea657130953d47d3969fb6b20b0402315d04988383604051610947929190612717565b60405180910390a1505050565b816000808260405161096691906122f8565b90815260200160405180910390206000018054610982906123aa565b9050116109c4576040517f08c379a00000000000000000000000000000000000000000000000000000000081526004016109bb90612427565b60405180910390fd5b60056003846040516109d691906122f8565b908152602001604051809103902060000160006101000a81548160ff02191690836005811115610a0957610a08611a06565b5b021790555081600584604051610a1f91906122f8565b90815260200160405180910390209081610a399190612615565b507ff4b5ad3fb3ba9ea26a5a95650e521320067d10c3d32e94777f89e61a697bffec8383604051610a6b929190612747565b60405180910390a1505050565b8260008082604051610a8a91906122f8565b90815260200160405180910390206000018054610aa6906123aa565b905011610ae8576040517f08c379a0000000000000000000000000000000000000000000000000000000008152600401610adf90612427565b60405180910390fd5b6000600285604051610afa91906122f8565b9081526020016040518091039020905083816000018190555082816001018190555060008160020154851180610b335750816003015485105b80610b415750816004015484115b90508015610bb15760018260050160006101000a81548160ff0219169083151502179055506005600387604051610b7891906122f8565b908152602001604051809103902060000160006101000a81548160ff02191690836005811115610bab57610baa611a06565b5b02179055505b600042905060405180608001604052808781526020018681526020018281526020013373ffffffffffffffffffffffffffffffffffffffff16815250600488604051610bfd91906122f8565b9081526020016040518091039020600083815260200190815260200160002060008201518160000155602082015181600101556040820151816002015560608201518160030160006101000a81548173ffffffffffffffffffffffffffffffffffffffff021916908373ffffffffffffffffffffffffffffffffffffffff160217905550905050600387604051610c9491906122f8565b90815260200160405180910390206002018190806001815401808255809150506001900390600052602060002001600090919091909150557f1122143c8cf29fee8de287a0c82d1ec38b456caad1ffe1c16f420f944c5d6f1f87878785604051610d01949392919061277e565b60405180910390a150505050505050565b600080600080600486604051610d2891906122f8565b908152602001604051809103902060008681526020019081526020016000206040518060800160405290816000820154815260200160018201548152602001600282015481526020016003820160009054906101000a900473ffffffffffffffffffffffffffffffffffffffff1673ffffffffffffffffffffffffffffffffffffffff1673ffffffffffffffffffffffffffffffffffffffff16815250509050806000015181602001518260600151935093509350509250925092565b60608060008060008060008088604051610dff91906122f8565b908152602001604051809103902090508060000181600101826002015483600301548460050160009054906101000a900473ffffffffffffffffffffffffffffffffffffffff168560050160149054906101000a900460ff16858054610e64906123aa565b80601f0160208091040260200160405190810160405280929190818152602001828054610e90906123aa565b8015610edd5780601f10610eb257610100808354040283529160200191610edd565b820191906000526020600020905b815481529060010190602001808311610ec057829003601f168201915b50505050509550848054610ef0906123aa565b80601f0160208091040260200160405190810160405280929190818152602001828054610f1c906123aa565b8015610f695780601f10610f3e57610100808354040283529160200191610f69565b820191906000526020600020905b815481529060010190602001808311610f4c57829003601f168201915b505050505094509650965096509650965096505091939550919395565b60606000606080600080600187604051610fa091906122f8565b9081526020016040518091039020905080600001816001015482600201836003018460040154848054610fd2906123aa565b80601f0160208091040260200160405190810160405280929190818152602001828054610ffe906123aa565b801561104b5780601f106110205761010080835404028352916020019161104b565b820191906000526020600020905b81548152906001019060200180831161102e57829003601f168201915b5050505050945082805461105e906123aa565b80601f016020809104026020016040519081016040528092919081815260200182805461108a906123aa565b80156110d75780601f106110ac576101008083540402835291602001916110d7565b820191906000526020600020905b8154815290600101906020018083116110ba57829003601f168201915b505050505092508180546110ea906123aa565b80601f0160208091040260200160405190810160405280929190818152602001828054611116906123aa565b80156111635780601f1061113857610100808354040283529160200191611163565b820191906000526020600020905b81548152906001019060200180831161114657829003601f168201915b50505050509150955095509550955095505091939590929450565b600080600080600080600060028860405161119991906122f8565b90815260200160405180910390209050806000015481600101548260020154836003015484600401548560050160009054906101000a900460ff169650965096509650965096505091939550919395565b813373ffffffffffffffffffffffffffffffffffffffff1660008260405161121291906122f8565b908152602001604051809103902060050160009054906101000a900473ffffffffffffffffffffffffffffffffffffffff1673ffffffffffffffffffffffffffffffffffffffff161461129a576040517f08c379a00000000000000000000000000000000000000000000000000000000081526004016112919061235b565b60405180910390fd5b600080846040516112ab91906122f8565b908152602001604051809103902060050160009054906101000a900473ffffffffffffffffffffffffffffffffffffffff169050826000856040516112f091906122f8565b908152602001604051809103902060050160006101000a81548173ffffffffffffffffffffffffffffffffffffffff021916908373ffffffffffffffffffffffffffffffffffffffff16021790555060038460405161134f91906122f8565b9081526020016040518091039020600101839080600181540180825580915050600190039060005260206000200160009091909190916101000a81548173ffffffffffffffffffffffffffffffffffffffff021916908373ffffffffffffffffffffffffffffffffffffffff1602179055508273ffffffffffffffffffffffffffffffffffffffff168173ffffffffffffffffffffffffffffffffffffffff167f6840904f5b31827f74e1497360da245f56e530c8c3de3163a2d31f11493273c68660405161141e9190612447565b60405180910390a350505050565b6000808660405161143d91906122f8565b90815260200160405180910390206000018054611459906123aa565b90501461149b576040517f08c379a000000000000000000000000000000000000000000000000000000000815260040161149290612816565b60405180910390fd5b600080866040516114ac91906122f8565b90815260200160405180910390209050848160000190816114cd9190612615565b50838160010190816114df9190612615565b50828160020181905550818160030181905550858160040190816115039190612615565b50338160050160006101000a81548173ffffffffffffffffffffffffffffffffffffffff021916908373ffffffffffffffffffffffffffffffffffffffff16021790555060008160050160146101000a81548160ff0219169083151502179055506000600167ffffffffffffffff811115611581576115806117d9565b5b6040519080825280602002602001820160405280156115af5781602001602082028036833780820191505090505b50905033816000815181106115c7576115c6612836565b5b602002602001019073ffffffffffffffffffffffffffffffffffffffff16908173ffffffffffffffffffffffffffffffffffffffff16815250508060038860405161161291906122f8565b90815260200160405180910390206001019080519060200190611636929190611703565b50600060038860405161164991906122f8565b908152602001604051809103902060000160006101000a81548160ff0219169083600581111561167c5761167b611a06565b5b021790555050505050505050565b606060038260405161169c91906122f8565b90815260200160405180910390206002018054806020026020016040519081016040528092919081815260200182805480156116f757602002820191906000526020600020905b8154815260200190600101908083116116e3575b50505050509050919050565b82805482825590600052602060002090810192821561177c579160200282015b8281111561177b5782518260006101000a81548173ffffffffffffffffffffffffffffffffffffffff021916908373ffffffffffffffffffffffffffffffffffffffff16021790555091602001919060010190611723565b5b509050611789919061178d565b5090565b5b808211156117a657600081600090555060010161178e565b5090565b6000604051905090565b600080fd5b600080fd5b600080fd5b600080fd5b6000601f19601f8301169050919050565b7f4e487b7100000000000000000000000000000000000000000000000000000000600052604160045260246000fd5b611811826117c8565b810181811067ffffffffffffffff821117156118305761182f6117d9565b5b80604052505050565b60006118436117aa565b905061184f8282611808565b919050565b600067ffffffffffffffff82111561186f5761186e6117d9565b5b611878826117c8565b9050602081019050919050565b82818337600083830152505050565b60006118a76118a284611854565b611839565b9050828152602081018484840111156118c3576118c26117c3565b5b6118ce848285611885565b509392505050565b600082601f8301126118eb576118ea6117be565b5b81356118fb848260208601611894565b91505092915050565b6000819050919050565b61191781611904565b811461192257600080fd5b50565b6000813590506119348161190e565b92915050565b60008060008060808587031215611954576119536117b4565b5b600085013567ffffffffffffffff811115611972576119716117b9565b5b61197e878288016118d6565b945050602061198f87828801611925565b93505060406119a087828801611925565b92505060606119b187828801611925565b91505092959194509250565b6000602082840312156119d3576119d26117b4565b5b600082013567ffffffffffffffff8111156119f1576119f06117b9565b5b6119fd848285016118d6565b91505092915050565b7f4e487b7100000000000000000000000000000000000000000000000000000000600052602160045260246000fd5b60068110611a4657611a45611a06565b5b50565b6000819050611a5782611a35565b919050565b6000611a6782611a49565b9050919050565b611a7781611a5c565b82525050565b600081519050919050565b600082825260208201905092915050565b6000819050602082019050919050565b600073ffffffffffffffffffffffffffffffffffffffff82169050919050565b6000611ad482611aa9565b9050919050565b611ae481611ac9565b82525050565b6000611af68383611adb565b60208301905092915050565b6000602082019050919050565b6000611b1a82611a7d565b611b248185611a88565b9350611b2f83611a99565b8060005b83811015611b60578151611b478882611aea565b9750611b5283611b02565b925050600181019050611b33565b5085935050505092915050565b6000604082019050611b826000830185611a6e565b8181036020830152611b948184611b0f565b90509392505050565b60008060008060008060c08789031215611bba57611bb96117b4565b5b600087013567ffffffffffffffff811115611bd857611bd76117b9565b5b611be489828a016118d6565b965050602087013567ffffffffffffffff811115611c0557611c046117b9565b5b611c1189828a016118d6565b9550506040611c2289828a01611925565b945050606087013567ffffffffffffffff811115611c4357611c426117b9565b5b611c4f89828a016118d6565b935050608087013567ffffffffffffffff811115611c7057611c6f6117b9565b5b611c7c89828a016118d6565b92505060a0611c8d89828a01611925565b9150509295509295509295565b60008060408385031215611cb157611cb06117b4565b5b600083013567ffffffffffffffff811115611ccf57611cce6117b9565b5b611cdb858286016118d6565b9250506020611cec85828601611925565b9150509250929050565b60068110611d0357600080fd5b50565b600081359050611d1581611cf6565b92915050565b60008060408385031215611d3257611d316117b4565b5b600083013567ffffffffffffffff811115611d5057611d4f6117b9565b5b611d5c858286016118d6565b9250506020611d6d85828601611d06565b9150509250929050565b60008060408385031215611d8e57611d8d6117b4565b5b600083013567ffffffffffffffff811115611dac57611dab6117b9565b5b611db8858286016118d6565b925050602083013567ffffffffffffffff811115611dd957611dd86117b9565b5b611de5858286016118d6565b9150509250929050565b600080600060608486031215611e0857611e076117b4565b5b600084013567ffffffffffffffff811115611e2657611e256117b9565b5b611e32868287016118d6565b9350506020611e4386828701611925565b9250506040611e5486828701611925565b9150509250925092565b611e6781611904565b82525050565b611e7681611ac9565b82525050565b6000606082019050611e916000830186611e5e565b611e9e6020830185611e5e565b611eab6040830184611e6d565b949350505050565b600081519050919050565b600082825260208201905092915050565b60005b83811015611eed578082015181840152602081019050611ed2565b60008484015250505050565b6000611f0482611eb3565b611f0e8185611ebe565b9350611f1e818560208601611ecf565b611f27816117c8565b840191505092915050565b60008115159050919050565b611f4781611f32565b82525050565b600060c0820190508181036000830152611f678189611ef9565b90508181036020830152611f7b8188611ef9565b9050611f8a6040830187611e5e565b611f976060830186611e5e565b611fa46080830185611e6d565b611fb160a0830184611f3e565b979650505050505050565b600060a0820190508181036000830152611fd68188611ef9565b9050611fe56020830187611e5e565b8181036040830152611ff78186611ef9565b9050818103606083015261200b8185611ef9565b905061201a6080830184611e5e565b9695505050505050565b600060c0820190506120396000830189611e5e565b6120466020830188611e5e565b6120536040830187611e5e565b6120606060830186611e5e565b61206d6080830185611e5e565b61207a60a0830184611f3e565b979650505050505050565b61208e81611ac9565b811461209957600080fd5b50565b6000813590506120ab81612085565b92915050565b600080604083850312156120c8576120c76117b4565b5b600083013567ffffffffffffffff8111156120e6576120e56117b9565b5b6120f2858286016118d6565b92505060206121038582860161209c565b9150509250929050565b600080600080600060a08688031215612129576121286117b4565b5b600086013567ffffffffffffffff811115612147576121466117b9565b5b612153888289016118d6565b955050602086013567ffffffffffffffff811115612174576121736117b9565b5b612180888289016118d6565b945050604086013567ffffffffffffffff8111156121a1576121a06117b9565b5b6121ad888289016118d6565b93505060606121be88828901611925565b92505060806121cf88828901611925565b9150509295509295909350565b600081519050919050565b600082825260208201905092915050565b6000819050602082019050919050565b61221181611904565b82525050565b60006122238383612208565b60208301905092915050565b6000602082019050919050565b6000612247826121dc565b61225181856121e7565b935061225c836121f8565b8060005b8381101561228d5781516122748882612217565b975061227f8361222f565b925050600181019050612260565b5085935050505092915050565b600060208201905081810360008301526122b4818461223c565b905092915050565b600081905092915050565b60006122d282611eb3565b6122dc81856122bc565b93506122ec818560208601611ecf565b80840191505092915050565b600061230482846122c7565b915081905092915050565b7f4e6f74206f776e65720000000000000000000000000000000000000000000000600082015250565b6000612345600983611ebe565b91506123508261230f565b602082019050919050565b6000602082019050818103600083015261237481612338565b9050919050565b7f4e487b7100000000000000000000000000000000000000000000000000000000600052602260045260246000fd5b600060028204905060018216806123c257607f821691505b6020821081036123d5576123d461237b565b5b50919050565b7f44727567206e6f7420666f756e64000000000000000000000000000000000000600082015250565b6000612411600e83611ebe565b915061241c826123db565b602082019050919050565b6000602082019050818103600083015261244081612404565b9050919050565b600060208201905081810360008301526124618184611ef9565b905092915050565b60008190508160005260206000209050919050565b60006020601f8301049050919050565b600082821b905092915050565b6000600883026124cb7fffffffffffffffffffffffffffffffffffffffffffffffffffffffffffffffff8261248e565b6124d5868361248e565b95508019841693508086168417925050509392505050565b6000819050919050565b600061251261250d61250884611904565b6124ed565b611904565b9050919050565b6000819050919050565b61252c836124f7565b61254061253882612519565b84845461249b565b825550505050565b600090565b612555612548565b612560818484612523565b505050565b5b818110156125845761257960008261254d565b600181019050612566565b5050565b601f8211156125c95761259a81612469565b6125a38461247e565b810160208510156125b2578190505b6125c66125be8561247e565b830182612565565b50505b505050565b600082821c905092915050565b60006125ec600019846008026125ce565b1980831691505092915050565b600061260583836125db565b9150826002028217905092915050565b61261e82611eb3565b67ffffffffffffffff811115612637576126366117d9565b5b61264182546123aa565b61264c828285612588565b600060209050601f83116001811461267f576000841561266d578287015190505b61267785826125f9565b8655506126df565b601f19841661268d86612469565b60005b828110156126b557848901518255600182019150602085019450602081019050612690565b868310156126d257848901516126ce601f8916826125db565b8355505b6001600288020188555050505b505050505050565b600060408201905081810360008301526127018185611ef9565b90506127106020830184611e5e565b9392505050565b600060408201905081810360008301526127318185611ef9565b90506127406020830184611a6e565b9392505050565b600060408201905081810360008301526127618185611ef9565b905081810360208301526127758184611ef9565b90509392505050565b600060808201905081810360008301526127988187611ef9565b90506127a76020830186611e5e565b6127b46040830185611e5e565b6127c16060830184611f3e565b95945050505050565b7f4472756720657869737473000000000000000000000000000000000000000000600082015250565b6000612800600b83611ebe565b915061280b826127ca565b602082019050919050565b6000602082019050818103600083015261282f816127f3565b9050919050565b7f4e487b7100000000000000000000000000000000000000000000000000000000600052603260045260246000fdfea264697066735822122042f6d2ecb2883e4b338766329be1c39f845c4e6c8434d4c05bcf22c800b34ff564736f6c634300081a0033",
  "linkReferences": {},
  "deployedLinkReferences": {}
}